0103                                    20250321134802         000009000000000432821000000000000000MC001
020220608911899       FFP01000002                  01000000000109820 09017313104915060             C0220608911899    rl bramding empresa individual de responsabilidad limitada                                                                                                                                                                                                             
020220608911899       FFP01000003                  01000000000109820 09017313104915060             C0220608911899    rl bramding empresa individual de responsabilidad limitada                                                                                                                                                                                                             
020220608911899       FFP01000004                  01000000000035143 09017313104915060             C0220608911899    rl bramding empresa individual de responsabilidad limitada                                                                                                                                                                                                             
020220608911899       FFP01000005                  01000000000109820 09017313104915060             C0220608911899    rl bramding empresa individual de responsabilidad limitada                                                                                                                                                                                                             
020220608911899       FFP01000006                  01000000000016538 09017313104915060             C0220608911899    rl bramding empresa individual de responsabilidad limitada                                                                                                                                                                                                             
020220608911899       FFP01000007                  01000000000012920 09017313104915060             C0220608911899    rl bramding empresa individual de responsabilidad limitada                                                                                                                                                                                                             
020220608911899       FFP01000008                  01000000000012920 09017313104915060             C0220608911899    rl bramding empresa individual de responsabilidad limitada                                                                                                                                                                                                             
020220608911899       FFP01000009                  01000000000012920 09017313104915060             C0220608911899    rl bramding empresa individual de responsabilidad limitada                                                                                                                                                                                                             
020220608911899       FFP01000010                  01000000000012920 09017313104915060             C0220608911899    rl bramding empresa individual de responsabilidad limitada                                                                                                                                                                                                             
